:100000000C9462000C948A000C948A000C948A0070
:100010000C948A000C948A000C948A000C948A0038
:100020000C948A000C948A000C948A000C94CD05E0
:100030000C948A000C948A000C948A000C948A0018
:100040000C9483050C948A000C9451050C942B0598
:100050000C948A000C948A000C948A000C948A00F8
:100060000C948A000C948A000000000024002700F1
:100070002A0000000000250028002B0000000000DE
:1000800023002600290004040404040404040202DA
:100090000202020203030303030301020408102007
:1000A0004080010204081020010204081020000012
:1000B0000008000201000003040700000000000027
:1000C0000000890611241FBECFEFD8E0DEBFCDBFF0
:1000D00011E0A0E0B1E0E8EEF2E102C005900D927F
:1000E000A231B107D9F721E0A2E1B1E001C01D9230
:1000F000AF3FB207E1F710E0C2E6D0E004C02197BD
:10010000FE010E945809C136D107C9F70E94320783
:100110000C9472090C940000CF92DF92EF92FF9240
:10012000DC01A03282E0B807D4F5A53BB10514F09C
:10013000A4EBB0E04091FD0128E830E0241B310938
:1001400047FD3395220F331F220F331F6901330FF1
:10015000EE08FF084091FE0128E532E0241B31093A
:1001600047FD3395220F331F220F331F032E000C40
:10017000440B550B2C193D094E095F09B7FF02C00E
:10018000B0E0A0E00E94FF0824EB30E040E050E047
:100190000E94D508C20ED31EE41EF51ED601E091C2
:1001A000FC01EC3080F52091FD0188E890E0821B95
:1001B000910927FD9395880F991F880F991FA817FC
:1001C000B90784F02091FE0188E592E0821B910935
:1001D00027FD9395880F991F880F991FA817B907B6
:1001E0000CF4CD010297880F991F4FB7F8942E2F6A
:1001F00030E0F901EE0FFF1FE20FF31FE354FE4F53
:10020000928381834FBFFF90EF90DF90CF9008954E
:10021000AF92BF92CF92DF92EF92FF920F931F9314
:10022000CF93DF936C017B018B01040F151FEB0152
:100230005E01AE18BF08C017D10759F06991D60109
:10024000ED91FC910190F081E02DC6010995892B7B
:1002500079F7C501DF91CF911F910F91FF90EF903A
:10026000DF90CF90BF90AF900895FC01538D448DE7
:10027000252F30E0842F90E0821B930B541710F051
:10028000CF96089501970895FC01918D828D98175E
:1002900061F0A28DAE0FBF2FB11D5D968C91928D36
:1002A0009F5F9F73928F90E008958FEF9FEF089567
:1002B000FC01918D828D981731F0828DE80FF11D30
:1002C000858D90E008958FEF9FEF0895FC01918D4B
:1002D000228D892F90E0805C9F4F821B91098F7344
:1002E0009927089580E291E00E94660121E0892B20
:1002F00009F420E0822F089580E090E0892B29F016
:100300000E94720181110C9400000895FC01A48DDB
:10031000A80FB92FB11DA35ABF4F2C91848D90E027
:1003200001968F739927848FA689B7892C93A0890A
:10033000B1898C91837080648C93938D848D981394
:1003400006C00288F389E02D80818F7D8083089527
:10035000EF92FF920F931F93CF93DF93EC0181E015
:10036000888F9B8D8C8D98131AC0E889F9898081BC
:1003700085FF15C09FB7F894EE89FF896083E889EF
:10038000F98980818370806480839FBF81E090E0E1
:10039000DF91CF911F910F91FF90EF900895F62E6E
:1003A0000B8D10E00F5F1F4F0F731127E02E8C8D08
:1003B0008E110CC00FB607FCFACFE889F98980814D
:1003C00085FFF5CFCE010E948601F1CFEB8DEC0FBA
:1003D000FD2FF11DE35AFF4FF0829FB7F8940B8F6A
:1003E000EA89FB8980818062CFCFCF93DF93EC01D4
:1003F000888D8823B9F0AA89BB89E889F9898C910D
:1004000085FD03C0808186FD0DC00FB607FCF7CFC8
:100410008C9185FFF2CF808185FFEDCFCE010E94C8
:100420008601E9CFDF91CF910895833081F028F4E0
:10043000813099F08230A9F008958730A9F0883092
:10044000C9F08430B1F4809180008F7D03C0809129
:1004500080008F7780938000089584B58F7784BD66
:10046000089584B58F7DFBCF8091B0008F77809306
:10047000B00008958091B0008F7DF9CFCF93DF93C6
:10048000282F30E0F901E255FF4F8491F901E6563B
:10049000FF4FD491F901EA57FF4FC491CC23A1F04B
:1004A00081110E941502EC2FF0E0EE0FFF1FE458BF
:1004B000FF4FA591B491EC91ED2381E090E009F418
:1004C00080E0DF91CF91089580E090E0FACF1F9314
:1004D000CF93DF93282F30E0F901E255FF4F84914D
:1004E000F901E656FF4FD491F901EA57FF4FC49145
:1004F000CC23A9F0162F81110E941502EC2FF0E0F9
:10050000EE0FFF1FEE58FF4FA591B4918FB7F894EF
:10051000EC91111108C0D095DE23DC938FBFDF91E1
:10052000CF911F910895DE2BF8CFCF93DF93EC018D
:100530008091EA019091EB01029749F4C130D10515
:1005400009F43BC06CF560E0209709F437C0809156
:10055000EA019091EB01049749F4C130D10509F407
:100560005CC00CF037C0209709F442C08091EA01CA
:100570009091EB01059709F0E5C0CA30D10508F06C
:10058000E1C0FE01EA53FD4F0C94580925033103E5
:1005900042035803730375037C0388039903A00384
:1005A000C230D105A9F060E0C330D10581F6809159
:1005B000EE010E94670260E006C061E08091EE01FA
:1005C0000E94670261E08091F0010E946702BFCF44
:1005D00061E0EDCFC230D10539F1C330D10509F06A
:1005E000C5CF61E08091EE010E94670260E022C009
:1005F00061E08091EE010E94670260E08091F0016D
:100600000E94670261E08091F2010E94670260E04F
:100610008091F4010E946702A9CF60E08091EE0111
:100620000E94670261E0EACF60E08091EE010E94E3
:10063000670261E08091F0010E94670260E08091B2
:10064000F2010E94670261E0E3CF60E08091EE0179
:100650000E94670261E08091F0010E94670261E000
:100660000BC060E08091EE010E94670261E0809122
:10067000F0010E94670260E08091F2010E9467022F
:1006800060E010C060E08091EE010E94670261E0CE
:100690008091F0010E94670260E08091F2010E9467
:1006A000670261E08091F4010E94670261E015C079
:1006B00060E08091EE010E94670261E08091F001AC
:1006C0000E94670260E08091F2010E94670261E08F
:1006D0008091F4010E94670260E08091F601DF9151
:1006E000CF910C94670261E0E4CF61E08091EE016C
:1006F0000E94670260E0E2CF61E08091EE010E941B
:10070000670260E08091F0010E94670261E0DBCF48
:1007100061E08091EE010E94670260E08091F0014B
:100720000E94670261E08091F2010E94670260E02E
:10073000CFCF61E08091EE010E94670260E08BCF35
:1007400060E0F8CFDF91CF910895CF93DF9390E0F1
:10075000FC01E656FF4F24918A579F4FFC0184917C
:100760008823C9F090E0880F991FFC01E859FF4FDA
:10077000A591B491FC01EE58FF4FC591D491611140
:100780000DC09FB7F8948C91209582238C9388811B
:10079000282328839FBFDF91CF910895623051F4C1
:1007A0009FB7F8943C91822F809583238C93E881A6
:1007B0002E2BEFCF8FB7F894EC912E2B2C938FBF6D
:1007C000EACF3FB7F8948091180190911901A09158
:1007D0001A01B0911B0126B5A89B05C02F3F19F047
:1007E0000196A11DB11D3FBFBA2FA92F982F8827B1
:1007F000BC01CD01620F711D811D911D42E0660F8C
:10080000771F881F991F4A95D1F708954F925F92DD
:100810006F927F928F929F92AF92BF92EF92FF92D0
:100820000F931F93CF93DF93EC0197FF04C0CC2766
:10083000DD27C81BD90B181619060CF061C081E022
:1008400090E09093E3018093E20104E010E08AE0FD
:10085000E82EF12C209709F46FC00E94E1038090EC
:10086000F8019090F901A090FA01B090FB012B01E2
:100870003C01481859086A087B088090E401909070
:10088000E501A090E601B090E701481459046A041C
:100890007B0400F36093F8017093F9018093FA01EF
:1008A0009093FB018091EC019091ED012091E20188
:1008B0003091E3012130310559F501969093ED0116
:1008C0008093EC012091E8013091E90182179307B0
:1008D00021F41092ED011092EC0121978091EC012E
:1008E0009091ED012091EA013091EB01B7012530A3
:1008F000310509F0B8010E9444090E949502AACF6F
:10090000892B09F4A2CF1092E3011092E2019DCF4E
:10091000892B41F48091E8019091E9019093ED01D8
:100920008093EC018091EC019091ED0101979093FF
:10093000ED018093EC01D1CFDF91CF911F910F9109
:10094000FF90EF90BF90AF909F908F907F906F90AF
:100950005F904F9008958F929F92AF92BF92CF92E7
:10096000DF92EF92FF924B015C010E94E1036B0169
:100970007C010E94E1036C197D098E099F09683E84
:10098000734081059105A8F321E0821A9108A1081E
:10099000B10888EEC80E83E0D81EE11CF11C81145A
:1009A0009104A104B10429F7FF90EF90DF90CF905C
:1009B000BF90AF909F908F9008958F929F92AF922B
:1009C000BF920F931F93CF93DF93CDB7DEB7A1975D
:1009D0000FB6F894DEBF0FBECDBF19A2423008F4A7
:1009E0004AE08E010F5D1F4F842E912CB12CA12C5B
:1009F000A50194010E940709E62FB901CA01EA3056
:100A000044F5E05DD801EE938D01232B242B252B9B
:100A100079F790E080E0109769F0FD0101900020E7
:100A2000E9F73197AF014A1B5B0BBD0180E291E012
:100A30000E940801A1960FB6F894DEBF0FBECDBF8D
:100A4000DF91CF911F910F91BF90AF909F908F90AA
:100A50000895E95CD7CF1F920F920FB60F92112421
:100A60002F933F934F935F936F937F938F939F93B6
:100A7000AF93BF93EF93FF9380E291E00E948601D2
:100A8000FF91EF91BF91AF919F918F917F916F9166
:100A90005F914F913F912F910F900FBE0F901F903C
:100AA00018951F920F920FB60F9211242F938F93C8
:100AB0009F93EF93FF93E0913001F091310180819A
:100AC000E0913601F091370182FD1BC09081809149
:100AD00039018F5F8F7320913A01821741F0E091C5
:100AE0003901F0E0E05EFE4F958F80933901FF9170
:100AF000EF919F918F912F910F900FBE0F901F90AC
:100B000018958081F4CF1F920F920FB60F92112487
:100B10002F933F938F939F93AF93BF938091140133
:100B200090911501A0911601B09117013091130118
:100B300023E0230F2D3758F50196A11DB11D2093F9
:100B400013018093140190931501A0931601B093A3
:100B500017018091180190911901A0911A01B0918B
:100B60001B010196A11DB11D8093180190931901DD
:100B7000A0931A01B0931B01BF91AF919F918F91E8
:100B80003F912F910F900FBE0F901F90189526E860
:100B9000230F0296A11DB11DD2CF1F920F920FB647
:100BA0000F9211242F933F934F935F936F937F93F3
:100BB0008F939F93AF93BF93CF93DF93EF93FF9365
:100BC00080911201C091E101D0E087FF24C0109212
:100BD000850010928400809112018F5F8093120132
:100BE00080911201082E000C990B8C179D0724F49C
:100BF000809112018C30C4F1809184009091850025
:100C0000049680349C4908F47AC0809184009091C5
:100C10008500049676C080911201082E000C990B75
:100C20008C179D07C4F6E09112018E2FEE0F990BE1
:100C3000FC01EE0FFF1FE80FF91FE354FE4F808108
:100C400086FFC9CFE09112018E2FEE0F990BFC01A8
:100C5000EE0FFF1FE80FF91FE354FE4F808160E0A5
:100C60008F730E946702B7CF209184003091850076
:100C7000E09112018E2FEE0F990BFC01EE0FFF1F7A
:100C8000E80FF91FE354FE4F81819281820F931F79
:100C90009093890080938800E09112018E2FEE0FCF
:100CA000990BFC01EE0FFF1FE80FF91FE354FE4FF5
:100CB000808186FF11C0E09112018E2FEE0F990BFB
:100CC000FC01EE0FFF1FE80FF91FE354FE4F808178
:100CD00061E08F730E946702FF91EF91DF91CF91E6
:100CE000BF91AF919F918F917F916F915F914F9144
:100CF0003F912F910F900FBE0F901F90189580E499
:100D00009CE990938900809388008FEF8093120173
:100D1000E3CF109223011092220188EE93E0A0E02D
:100D2000B0E08093240190932501A0932601B09315
:100D3000270184E091E0909321018093200185ECCC
:100D400090E090932D0180932C0184EC90E090939F
:100D50002F0180932E0180EC90E0909331018093DD
:100D6000300181EC90E0909333018093320182EC6A
:100D700090E0909335018093340186EC90E090935D
:100D80003701809336011092390110923A01109286
:100D90003B0110923C018091E1018C3008F05EC073
:100DA00091E0980F9093E1018093FC0190E0FC01A9
:100DB000EE0FFF1FE80FF91FE354FE4F88EB9BE097
:100DC000928381831092ED011092EC011092E30165
:100DD0001092E2011092F8011092F9011092FA01BA
:100DE0001092FB0188EC90E09093E9018093E80178
:100DF00088E090E09093EF018093EE018AE090E02C
:100E00009093F1018093F00189E090E09093F301D9
:100E10008093F2018BE090E09093F5018093F401D0
:100E200061E088E00E94A50361E08091F0010E94EA
:100E3000A50361E08091F2010E94A50361E0809129
:100E4000F4010E94A5031092F7011092F60184E0CC
:100E500090E09093EB018093EA0108958FEF8093E7
:100E6000FC01B0CF789484B5826084BD84B5816084
:100E700084BD85B5826085BD85B5816085BD809165
:100E80006E00816080936E001092810080918100DD
:100E900082608093810080918100816080938100D5
:100EA000809180008160809380008091B100846097
:100EB0008093B1008091B00081608093B0008091F8
:100EC0007A00846080937A0080917A0082608093B7
:100ED0007A0080917A00816080937A0080917A0014
:100EE000806880937A001092C10062E082E00E94E4
:100EF000A50360E08DE00E94A50360E08CE00E9405
:100F0000A50360E082E00E94A503E0913001F0912A
:100F1000310182E08083E0912C01F0912D0110825B
:100F2000E0912E01F0912F018FEC80831092380117
:100F3000E0913401F091350186E08083E091320147
:100F4000F0913301808180618083E0913201F091E2
:100F50003301808188608083E0913201F091330118
:100F6000808180688083E0913201F091330180813B
:100F70008F7D80838091FC018C3008F051C061E04E
:100F800083E00E94A5038091FC01282F30E0F90145
:100F9000EE0FFF1FE20FF31FE354FE4F9081907C92
:100FA000936090831092FD011092FE012CE0622F5D
:100FB0000E943809829FB001112430E020E0AB018B
:100FC000420F531FFA01EE0FFF1FE40FF51FE3540A
:100FD000FE4F908196FD16C02F5F3F4F2C3031059C
:100FE00071F781110FC01092800082E08093810020
:100FF0001092850010928400B19A80916F008260F7
:1010000080936F00E091FC018E2F90E0FC01EE0FC9
:10101000FF1FE80FF91FE354FE4F80818064808337
:1010200090E080E00E948C002091E8013091E9017D
:10103000032E000C440B550B60E077E883E993E046
:101040000E94D508CA01B9012EE130E040E050E02D
:101050000E94D5082093E4013093E5014093E60116
:101060005093E701C0E0D0E082E00E943E02019789
:1010700099F5C0901E01D0901F0164EF71E080E0EF
:1010800090E00E94AB048FEFC81AD80AD0921F01DB
:10109000C0921E010D2C000CEE08FF084AE0C701AB
:1010A000B601F7FE0DC06DE280E291E00E94A8015A
:1010B00066277727CB016C197D098E099F094AE0C5
:1010C0000E94DD0480911E0190911F01049724F07D
:1010D00010921F0110921E0180911E0190911F011C
:1010E00081309105E1F48DE00E943E02019779F490
:1010F00088EC90E00E940604209709F4B5CF0E9486
:101100007201882309F4B0CF0E940000ADCF8CE0BB
:101110000E943E02019781F788E39FEFEBCF823078
:10112000910559F58CE00E943E027C0181E0E816B1
:10113000F10479F480911C0190911D01892B49F4EF
:1011400084E690E00E948C00F0921D01E0921C0168
:10115000D3CF8DE00E943E02019771F680911C0171
:1011600090911D01019741F690E080E00E948C0073
:1011700010921D0110921C01BFCF039709F0BCCF44
:101180008CE00E943E02019759F461E084E00E94E5
:10119000670264E670E080E090E00E94AB04ACCFB0
:1011A00060E084E00E946702A7CF052E97FB1EF443
:1011B00000940E94EC0857FD07D00E94070907FC25
:1011C00003D04EF40C94EC08509540953095219541
:1011D0003F4F4F4F5F4F0895909580957095619563
:1011E0007F4F8F4F9F4F08950E942909A59F900D13
:1011F000B49F900DA49F800D911D11240895B7FFF9
:101200000C94F4080E94F408821B930B0895A1E249
:101210001A2EAA1BBB1BFD010DC0AA1FBB1FEE1F70
:10122000FF1FA217B307E407F50720F0A21BB30BBB
:10123000E40BF50B661F771F881F991F1A9469F737
:1012400060957095809590959B01AC01BD01CF0193
:101250000895A29FB001B39FC001A39F700D811D8F
:101260001124911DB29F700D811D1124911D0895AF
:10127000991B79E004C0991F961708F0961B881FE8
:101280007A95C9F78095089597FB072E16F4009478
:1012900007D077FD09D00E945E0907FC05D03EF417
:1012A000909581959F4F0895709561957F4F089512
:1012B000EE0FFF1F0590F491E02D0994AA1BBB1BB4
:1012C00051E107C0AA1FBB1FA617B70710F0A61B46
:1012D000B70B881F991F5A95A9F780959095BC0167
:0812E000CD010895F894FFCF41
:1012E80000000000A80108013501F501660144016C
:0212F80058019B
:00000001FF
