:100000000C9461000C9473000C9473000C947300B6
:100010000C9473000C9473000C9473000C94730094
:100020000C9473000C9473000C9473000C94730084
:100030000C9473000C9473000C9473000C94730074
:100040000C9453010C9473000C9473000C94730083
:100050000C9473000C9473000C9473000C94730054
:100060000C9473000C947300000000002300260021
:10007000290000000000250028002B0000000000DF
:10008000240027002A0004040404040404040202D7
:100090000202020203030303030301020408102007
:1000A0004080010204081020010204081020000012
:1000B0000008000201000003040700000000000027
:1000C000000011241FBECFEFD8E0DEBFCDBF21E07E
:1000D000A0E0B1E001C01D92AB30B207E1F70E9491
:1000E0009D010C947C020C940000E3EAF0E0249162
:1000F000EFE8F0E08491882399F090E0880F991F51
:10010000FC01E458FF4FA591B491FC01EE58FF4F5C
:10011000859194918FB7F894EC91E22BEC938FBF7B
:100120000895833081F028F4813099F08230A9F06D
:1001300008958730A9F08830C9F08430B1F48091F7
:1001400080008F7D03C0809180008F778093800036
:10015000089584B58F7784BD089584B58F7DFBCFD6
:100160008091B0008F778093B00008958091B000A7
:100170008F7DF9CF1F93CF93DF93282F30E0F901C4
:10018000E255FF4F8491F901E656FF4FD491F901F2
:10019000EA57FF4FC491CC23A9F0162F81110E947A
:1001A0009100EC2FF0E0EE0FFF1FEE58FF4FA591EE
:1001B000B4918FB7F894EC91111108C0D095DE235B
:1001C000DC938FBFDF91CF911F910895DE2BF8CF85
:1001D000E7EBF0E0E491E33039F160F4E130D1F0A5
:1001E000E230E9F060E0803891050CF061E089E0F0
:1001F0000C94BA00E73011F1E83041F1E43091F7A6
:100200002091800020622093800090938B00809347
:100210008A00089594B5906894BD87BD089594B5FB
:10022000906294BD88BD089520918000206820933D
:100230008000909389008093880008959091B00089
:1002400090689093B0008093B30008959091B000AF
:1002500090629093B0008093B40008953FB7F894F3
:100260008091050190910601A0910701B0910801CC
:1002700026B5A89B05C02F3F19F00196A11DB11D01
:100280003FBFBA2FA92F982F8827BC01CD01620F3D
:10029000711D811D911D42E0660F771F881F991FF8
:1002A0004A95D1F708951F920F920FB60F9211241D
:1002B0002F933F938F939F93AF93BF9380910101AF
:1002C00090910201A0910301B091040130910001CD
:1002D00023E0230F2D3758F50196A11DB11D209362
:1002E00000018093010190930201A0930301B09358
:1002F00004018091050190910601A0910701B09140
:1003000008010196A11DB11D80930501909306017E
:10031000A0930701B0930801BF91AF919F918F9176
:100320003F912F910F900FBE0F901F90189526E8C8
:10033000230F0296A11DB11DD2CF789484B582609F
:1003400084BD84B5816084BD85B5826085BD85B579
:10035000816085BD80916E00816080936E001092F7
:100360008100809181008260809381008091810072
:100370008160809381008091800081608093800003
:100380008091B10084608093B1008091B000816061
:100390008093B00080917A00846080937A0080918D
:1003A0007A00826080937A0080917A0081608093E5
:1003B0007A0080917A00806880937A001092C10060
:1003C0000E94750020EB222E20E0322E3CE9832E85
:1003D00030E0932EC8E8D0E000E010E0AA24A39417
:1003E000B12CF1018491F401F490FE01E490EE202F
:1003F00009F45DC081110E949100EE2DF0E0EE0F36
:10040000FF1FE859FF4FA591B4918C91F82209F490
:100410004EC00E942E012B013C0184EFC82EDD242A
:10042000D394E12CF12C0E942E01641975098609E0
:100430009709683E734081059105A8F3F1E0CF1A52
:10044000D108E108F10828EE420E23E0521E611C9B
:10045000711CC114D104E104F10429F78091090150
:1004600090910A0101968430910541F190930A011F
:10047000809309018091090190910A0181309105D1
:1004800011F50E94750082E390E00E94E80061E0AF
:1004900087E00E94BA0060E086E00E94BA0060E057
:1004A00085E00E94BA0060E084E00E94BA00011575
:1004B000110509F496CF0E94000093CFB0920A0173
:1004C000A0920901D7CF8230910561F40E94750096
:1004D00084E690E00E94E80060E087E00E94BA00B5
:1004E00061E0DACF039719F70E94750088EC90E07D
:0C04F0000E94E80061E0F1CFF894FFCF1B
:00000001FF
